{
  "address": "0xc63C3EA966E0E6a1F8C45f638D0447da06A9F287",
  "abi": [
    {
      "inputs": [
        {
          "internalType": "address",
          "name": "_priceFeedAddress",
          "type": "address"
        }
      ],
      "stateMutability": "nonpayable",
      "type": "constructor"
    },
    {
      "inputs": [],
      "name": "FundMe__NotOwner",
      "type": "error"
    },
    {
      "stateMutability": "payable",
      "type": "fallback"
    },
    {
      "inputs": [],
      "name": "MINUSD",
      "outputs": [
        {
          "internalType": "uint256",
          "name": "",
          "type": "uint256"
        }
      ],
      "stateMutability": "view",
      "type": "function"
    },
    {
      "inputs": [
        {
          "internalType": "address",
          "name": "_newOwner",
          "type": "address"
        }
      ],
      "name": "changeOwner",
      "outputs": [],
      "stateMutability": "nonpayable",
      "type": "function"
    },
    {
      "inputs": [],
      "name": "fund",
      "outputs": [],
      "stateMutability": "payable",
      "type": "function"
    },
    {
      "inputs": [
        {
          "internalType": "address",
          "name": "_funder",
          "type": "address"
        }
      ],
      "name": "getFunderToAmo",
      "outputs": [
        {
          "internalType": "uint256",
          "name": "",
          "type": "uint256"
        }
      ],
      "stateMutability": "view",
      "type": "function"
    },
    {
      "inputs": [
        {
          "internalType": "uint256",
          "name": "idx",
          "type": "uint256"
        }
      ],
      "name": "getFunders",
      "outputs": [
        {
          "internalType": "address",
          "name": "",
          "type": "address"
        }
      ],
      "stateMutability": "view",
      "type": "function"
    },
    {
      "inputs": [],
      "name": "getOwner",
      "outputs": [
        {
          "internalType": "address",
          "name": "",
          "type": "address"
        }
      ],
      "stateMutability": "view",
      "type": "function"
    },
    {
      "inputs": [],
      "name": "getPriceFeed",
      "outputs": [
        {
          "internalType": "contract AggregatorV3Interface",
          "name": "",
          "type": "address"
        }
      ],
      "stateMutability": "view",
      "type": "function"
    },
    {
      "inputs": [],
      "name": "wdraw",
      "outputs": [],
      "stateMutability": "nonpayable",
      "type": "function"
    },
    {
      "stateMutability": "payable",
      "type": "receive"
    }
  ],
  "transactionHash": "0xc1070f754a6c93c96e3aa6fecf0f9de2c8f584457ed38b5b06a83b1c15498507",
  "args": [
    "0x7888Fb2943b9b6D450d8226EAF11d5eB2958bAd7"
  ],
  "numDeployments": 1,
  "solcInputHash": "9f8d5b48f6f929c6a15abac1b440bf69",
  "bytecode": "0x608060405234801561001057600080fd5b5060405161094038038061094083398101604081905261002f91610097565b60008054336001600160a01b031991821617909155600280549091166001600160a01b03929092169190911790556100c0565b60006001600160a01b0382165b92915050565b61007e81610062565b811461008957600080fd5b50565b805161006f81610075565b6000602082840312156100ac576100ac600080fd5b60006100b8848461008c565b949350505050565b610871806100cf6000396000f3fe60806040526004361061007f5760003560e01c8063a6f9dae11161004e578063a6f9dae11461013f578063b60d42881461015f578063bcc57b0d14610167578063ccadfaf21461019d5761008e565b80633a7b6c741461009c5780634dc93616146100d2578063893d20e8146100fb5780639e87a5cd146101195761008e565b3661008e5761008c6101b2565b005b341561008c5761008c6101b2565b3480156100a857600080fd5b506100bc6100b7366004610599565b61024c565b6040516100c991906105e2565b60405180910390f35b3480156100de57600080fd5b506100ee671bc16d674ec8000081565b6040516100c991906105f6565b34801561010757600080fd5b506000546001600160a01b03166100bc565b34801561012557600080fd5b506002546001600160a01b03166040516100c99190610623565b34801561014b57600080fd5b5061008c61015a366004610645565b61027c565b61008c6101b2565b34801561017357600080fd5b506100ee610182366004610645565b6001600160a01b031660009081526003602052604090205490565b3480156101a957600080fd5b5061008c6102c9565b600254671bc16d674ec80000906101d39034906001600160a01b0316610449565b10156101fa5760405162461bcd60e51b81526004016101f190610691565b60405180910390fd5b33600081815260036020526040812034905560018054808201825591527fb10e2d527612073b26eecdfd717e6a320cf44b4afac2b0732d9fcbe2b7fa0cf60180546001600160a01b0319169091179055565b600060018281548110610261576102616106a1565b6000918252602090912001546001600160a01b031692915050565b6000546001600160a01b031633146102a75760405163579610db60e01b815260040160405180910390fd5b600080546001600160a01b0319166001600160a01b0392909216919091179055565b6000546001600160a01b031633146102f45760405163579610db60e01b815260040160405180910390fd5b6000336001600160a01b03164760405161030d906106b7565b60006040518083038185875af1925050503d806000811461034a576040519150601f19603f3d011682016040523d82523d6000602084013e61034f565b606091505b50509050806103705760405162461bcd60e51b81526004016101f1906106e1565b600060018054806020026020016040519081016040528092919081815260200182805480156103c857602002820191906000526020600020905b81546001600160a01b031681526001909101906020018083116103aa575b5050505050905060005b81518110156104265760008282815181106103ef576103ef6106a1565b6020908102919091018101516001600160a01b0316600090815260039091526040812055508061041e81610707565b9150506103d2565b50604080516000815260208101918290525161044491600191610504565b505050565b60008061045583610481565b90506000670de0b6b3a764000061046c8684610721565b6104769190610756565b925050505b92915050565b600080826001600160a01b031663feaf968c6040518163ffffffff1660e01b815260040160a060405180830381865afa1580156104c2573d6000803e3d6000fd5b505050506040513d601f19601f820116820180604052508101906104e69190610792565b505050915050806402540be4006104fd919061080a565b9392505050565b828054828255906000526020600020908101928215610559579160200282015b8281111561055957825182546001600160a01b0319166001600160a01b03909116178255602090920191600190910190610524565b50610565929150610569565b5090565b5b80821115610565576000815560010161056a565b805b811461058b57600080fd5b50565b803561047b8161057e565b6000602082840312156105ae576105ae600080fd5b60006105ba848461058e565b949350505050565b60006001600160a01b03821661047b565b6105dc816105c2565b82525050565b6020810161047b82846105d3565b806105dc565b6020810161047b82846105f0565b600061047b826105c2565b600061047b82610604565b6105dc8161060f565b6020810161047b828461061a565b610580816105c2565b803561047b81610631565b60006020828403121561065a5761065a600080fd5b60006105ba848461063a565b6011815260006020820170135bdc9948115512081c995c5d5a5c9959607a1b815291505b5060200190565b6020808252810161047b81610666565b634e487b7160e01b600052603260045260246000fd5b60008161047b565b600b81526000602082016a14d95b990819985a5b195960aa1b8152915061068a565b6020808252810161047b816106bf565b634e487b7160e01b600052601160045260246000fd5b6000600019820361071a5761071a6106f1565b5060010190565b818102808215838204851417610739576107396106f1565b5092915050565b634e487b7160e01b600052601260045260246000fd5b60008261076557610765610740565b500490565b69ffffffffffffffffffff8116610580565b805161047b8161076a565b805161047b8161057e565b600080600080600060a086880312156107ad576107ad600080fd5b60006107b9888861077c565b95505060206107ca88828901610787565b94505060406107db88828901610787565b93505060606107ec88828901610787565b92505060806107fd8882890161077c565b9150509295509295909350565b8181028060008312600160ff1b85141615610827576108276106f1565b8282058414831517610739576107396106f156fea26469706673582212202681fe87b31e5a67cd95ced6f7aaf03c07fcdb33b800059a856ec1f0387395c464736f6c63430008110033",
  "devdoc": {
    "kind": "dev",
    "methods": {},
    "version": 1
  },
  "userdoc": {
    "kind": "user",
    "methods": {},
    "version": 1
  },
  "storageLayout": {
    "storage": [
      {
        "astId": 56,
        "contract": "contracts/fundMe.sol:FundMe",
        "label": "i_owner",
        "offset": 0,
        "slot": "0",
        "type": "t_address"
      },
      {
        "astId": 59,
        "contract": "contracts/fundMe.sol:FundMe",
        "label": "s_funders",
        "offset": 0,
        "slot": "1",
        "type": "t_array(t_address)dyn_storage"
      },
      {
        "astId": 62,
        "contract": "contracts/fundMe.sol:FundMe",
        "label": "s_priceFeed",
        "offset": 0,
        "slot": "2",
        "type": "t_contract(AggregatorV3Interface)45"
      },
      {
        "astId": 66,
        "contract": "contracts/fundMe.sol:FundMe",
        "label": "s_funderToAmo",
        "offset": 0,
        "slot": "3",
        "type": "t_mapping(t_address,t_uint256)"
      }
    ],
    "types": {
      "t_address": {
        "encoding": "inplace",
        "label": "address",
        "numberOfBytes": "20"
      },
      "t_array(t_address)dyn_storage": {
        "base": "t_address",
        "encoding": "dynamic_array",
        "label": "address[]",
        "numberOfBytes": "32"
      },
      "t_contract(AggregatorV3Interface)45": {
        "encoding": "inplace",
        "label": "contract AggregatorV3Interface",
        "numberOfBytes": "20"
      },
      "t_mapping(t_address,t_uint256)": {
        "encoding": "mapping",
        "key": "t_address",
        "label": "mapping(address => uint256)",
        "numberOfBytes": "32",
        "value": "t_uint256"
      },
      "t_uint256": {
        "encoding": "inplace",
        "label": "uint256",
        "numberOfBytes": "32"
      }
    }
  }
}